{
	"contractName": "FlightSuretyApp",
	"abi": [
		{
			"constant": true,
			"inputs": [],
			"name": "REGISTRATION_FEE",
			"outputs": [
				{
					"name": "",
					"type": "uint256"
				}
			],
			"payable": false,
			"stateMutability": "view",
			"type": "function",
			"signature": "0x64b4f751"
		},
		{
			"constant": false,
			"inputs": [],
			"name": "renounceOwnership",
			"outputs": [],
			"payable": false,
			"stateMutability": "nonpayable",
			"type": "function",
			"signature": "0x715018a6"
		},
		{
			"constant": true,
			"inputs": [],
			"name": "owner",
			"outputs": [
				{
					"name": "",
					"type": "address"
				}
			],
			"payable": false,
			"stateMutability": "view",
			"type": "function",
			"signature": "0x8da5cb5b"
		},
		{
			"constant": true,
			"inputs": [],
			"name": "isOwner",
			"outputs": [
				{
					"name": "",
					"type": "bool"
				}
			],
			"payable": false,
			"stateMutability": "view",
			"type": "function",
			"signature": "0x8f32d59b"
		},
		{
			"constant": false,
			"inputs": [
				{
					"name": "newOwner",
					"type": "address"
				}
			],
			"name": "transferOwnership",
			"outputs": [],
			"payable": false,
			"stateMutability": "nonpayable",
			"type": "function",
			"signature": "0xf2fde38b"
		},
		{
			"inputs": [
				{
					"name": "flightSuretyDataContract",
					"type": "address"
				}
			],
			"payable": false,
			"stateMutability": "nonpayable",
			"type": "constructor",
			"signature": "constructor"
		},
		{
			"anonymous": false,
			"inputs": [
				{
					"indexed": false,
					"name": "airlineAdress",
					"type": "address"
				},
				{
					"indexed": false,
					"name": "fund",
					"type": "uint256"
				}
			],
			"name": "AirlineSubmittedFund",
			"type": "event",
			"signature": "0x5c8d63664d2fcb80124cc2336799bcf0be841fa53a6c6054e6e397222425d56f"
		},
		{
			"anonymous": false,
			"inputs": [
				{
					"indexed": false,
					"name": "state",
					"type": "uint8"
				},
				{
					"indexed": false,
					"name": "airlinesRegistered",
					"type": "uint256"
				}
			],
			"name": "AirlineRegistration",
			"type": "event",
			"signature": "0x57e6365ca0d5671f421a334f2d64fd3396faf131dbabf85533feea8c9d46c164"
		},
		{
			"anonymous": false,
			"inputs": [
				{
					"indexed": false,
					"name": "airlineEmitionVoteAddress",
					"type": "address"
				},
				{
					"indexed": false,
					"name": "airlineVotedName",
					"type": "string"
				},
				{
					"indexed": false,
					"name": "airlineVotes",
					"type": "uint256"
				}
			],
			"name": "MultipartyConsensusAirlineRegisterVote",
			"type": "event",
			"signature": "0x2e335ae65869eda5ae40677cbe2067ce4cebe5afea61b76cc260970402d72129"
		},
		{
			"anonymous": false,
			"inputs": [
				{
					"indexed": false,
					"name": "flightCode",
					"type": "bytes32"
				},
				{
					"indexed": false,
					"name": "airline",
					"type": "address"
				},
				{
					"indexed": false,
					"name": "status",
					"type": "uint8"
				}
			],
			"name": "FlightRegistered",
			"type": "event",
			"signature": "0x414f963dad0c693d4fa936d56b7dfd7d2c2506e82a64efda601b3fb8d8ccaf20"
		},
		{
			"anonymous": false,
			"inputs": [
				{
					"indexed": false,
					"name": "passenger",
					"type": "address"
				},
				{
					"indexed": false,
					"name": "flightCode",
					"type": "bytes32"
				},
				{
					"indexed": false,
					"name": "status",
					"type": "uint8"
				}
			],
			"name": "BoughtInsurance",
			"type": "event",
			"signature": "0xbc610a15be7a569b2502776fe8fbcb93efaae18f429b6fc3dd252c2cddeefc6d"
		},
		{
			"anonymous": false,
			"inputs": [
				{
					"indexed": false,
					"name": "passenger",
					"type": "address"
				},
				{
					"indexed": false,
					"name": "code",
					"type": "bytes32"
				},
				{
					"indexed": false,
					"name": "amount",
					"type": "uint256"
				},
				{
					"indexed": false,
					"name": "status",
					"type": "uint8"
				}
			],
			"name": "PassengerWithdrawStatus",
			"type": "event",
			"signature": "0xb4e070083fb8566e5085b63c065ea8903bdf9632c56fd6a16d2c369eb1a947f6"
		},
		{
			"anonymous": false,
			"inputs": [
				{
					"indexed": false,
					"name": "airline",
					"type": "address"
				},
				{
					"indexed": false,
					"name": "flight",
					"type": "bytes32"
				},
				{
					"indexed": false,
					"name": "timestamp",
					"type": "uint256"
				},
				{
					"indexed": false,
					"name": "status",
					"type": "uint8"
				}
			],
			"name": "FlightStatusInfo",
			"type": "event",
			"signature": "0x2c01e4c91c66eba4e28833dfd0d7db5b12558c3773d8fe5ab88cbaafb423056e"
		},
		{
			"anonymous": false,
			"inputs": [
				{
					"indexed": false,
					"name": "airline",
					"type": "address"
				},
				{
					"indexed": false,
					"name": "flight",
					"type": "bytes32"
				},
				{
					"indexed": false,
					"name": "timestamp",
					"type": "uint256"
				},
				{
					"indexed": false,
					"name": "status",
					"type": "uint8"
				}
			],
			"name": "OracleReport",
			"type": "event",
			"signature": "0x06354a194cc1aa38c93009e264262f1db6b56a5e6dc2be2c7596a94b980c2f85"
		},
		{
			"anonymous": false,
			"inputs": [
				{
					"indexed": false,
					"name": "index",
					"type": "uint8"
				},
				{
					"indexed": false,
					"name": "airline",
					"type": "address"
				},
				{
					"indexed": false,
					"name": "flight",
					"type": "bytes32"
				},
				{
					"indexed": false,
					"name": "timestamp",
					"type": "uint256"
				}
			],
			"name": "OracleRequest",
			"type": "event",
			"signature": "0x8b9eb22876717bbfb6bc02e9c693f640e54e5eb49e166ece6d6a70a6cc84a34f"
		},
		{
			"anonymous": false,
			"inputs": [
				{
					"indexed": true,
					"name": "oldOwner",
					"type": "address"
				},
				{
					"indexed": true,
					"name": "newOwner",
					"type": "address"
				}
			],
			"name": "TransferOwnership",
			"type": "event",
			"signature": "0x5c486528ec3e3f0ea91181cff8116f02bfa350e03b8b6f12e00765adbb5af85c"
		},
		{
			"constant": true,
			"inputs": [],
			"name": "isOperational",
			"outputs": [
				{
					"name": "",
					"type": "bool"
				}
			],
			"payable": false,
			"stateMutability": "pure",
			"type": "function",
			"signature": "0xcd905dff"
		},
		{
			"constant": true,
			"inputs": [],
			"name": "getBalanceAppContract",
			"outputs": [
				{
					"name": "",
					"type": "uint256"
				}
			],
			"payable": false,
			"stateMutability": "view",
			"type": "function",
			"signature": "0xe02f83c7"
		},
		{
			"constant": false,
			"inputs": [],
			"name": "fetchDataContractConfiguration",
			"outputs": [
				{
					"name": "operational",
					"type": "bool"
				},
				{
					"name": "minAirlinesNumberMutipartyConsensus",
					"type": "uint8"
				},
				{
					"name": "minSubmitionFund",
					"type": "uint256"
				},
				{
					"name": "registeredAirlines",
					"type": "uint256"
				}
			],
			"payable": false,
			"stateMutability": "nonpayable",
			"type": "function",
			"signature": "0xe7580f7b"
		},
		{
			"constant": false,
			"inputs": [
				{
					"name": "airlineAddressToRegister",
					"type": "address"
				},
				{
					"name": "airlineName",
					"type": "string"
				}
			],
			"name": "registerAirline",
			"outputs": [],
			"payable": false,
			"stateMutability": "nonpayable",
			"type": "function",
			"signature": "0xee38a749"
		},
		{
			"constant": false,
			"inputs": [],
			"name": "submitFundAirline",
			"outputs": [],
			"payable": true,
			"stateMutability": "payable",
			"type": "function",
			"signature": "0x26687a44"
		},
		{
			"constant": false,
			"inputs": [
				{
					"name": "airlineAddressToBeRegister",
					"type": "address"
				},
				{
					"name": "vote",
					"type": "bool"
				}
			],
			"name": "multipartyConsensusVote",
			"outputs": [],
			"payable": false,
			"stateMutability": "nonpayable",
			"type": "function",
			"signature": "0x4647a9a3"
		},
		{
			"constant": false,
			"inputs": [
				{
					"name": "code",
					"type": "bytes32"
				},
				{
					"name": "updatedTimestamp",
					"type": "uint256"
				},
				{
					"name": "departure",
					"type": "bytes32"
				},
				{
					"name": "arrival",
					"type": "bytes32"
				}
			],
			"name": "registerFlight",
			"outputs": [],
			"payable": false,
			"stateMutability": "nonpayable",
			"type": "function",
			"signature": "0xe77d8da6"
		},
		{
			"constant": true,
			"inputs": [],
			"name": "fetchFlightsCodes",
			"outputs": [
				{
					"name": "",
					"type": "bytes32[]"
				}
			],
			"payable": false,
			"stateMutability": "view",
			"type": "function",
			"signature": "0x360f74dc"
		},
		{
			"constant": true,
			"inputs": [
				{
					"name": "flightCode",
					"type": "bytes32"
				}
			],
			"name": "fetchFlightInfoByCode",
			"outputs": [
				{
					"name": "",
					"type": "bytes32"
				},
				{
					"name": "",
					"type": "string"
				},
				{
					"name": "",
					"type": "bytes32"
				},
				{
					"name": "",
					"type": "bytes32"
				},
				{
					"name": "",
					"type": "address"
				}
			],
			"payable": false,
			"stateMutability": "view",
			"type": "function",
			"signature": "0x98b5151c"
		},
		{
			"constant": false,
			"inputs": [
				{
					"name": "flightCode",
					"type": "bytes32"
				}
			],
			"name": "buyInsurance",
			"outputs": [],
			"payable": true,
			"stateMutability": "payable",
			"type": "function",
			"signature": "0xd79b71a2"
		},
		{
			"constant": true,
			"inputs": [],
			"name": "fetchActiveInsurancesKeysForPassenger",
			"outputs": [
				{
					"name": "",
					"type": "bytes32[]"
				}
			],
			"payable": false,
			"stateMutability": "view",
			"type": "function",
			"signature": "0x3c086c24"
		},
		{
			"constant": true,
			"inputs": [
				{
					"name": "flightCode",
					"type": "bytes32"
				}
			],
			"name": "fetchInsurancesInfoForPassengerAndCode",
			"outputs": [
				{
					"name": "",
					"type": "bytes32"
				},
				{
					"name": "",
					"type": "uint256"
				},
				{
					"name": "",
					"type": "uint8"
				}
			],
			"payable": false,
			"stateMutability": "view",
			"type": "function",
			"signature": "0x72511d4d"
		},
		{
			"constant": false,
			"inputs": [
				{
					"name": "flightCode",
					"type": "bytes32"
				}
			],
			"name": "passengerWithdraw",
			"outputs": [],
			"payable": true,
			"stateMutability": "payable",
			"type": "function",
			"signature": "0x691539d4"
		},
		{
			"constant": false,
			"inputs": [
				{
					"name": "airline",
					"type": "address"
				},
				{
					"name": "flight",
					"type": "bytes32"
				},
				{
					"name": "timestamp",
					"type": "uint256"
				}
			],
			"name": "fetchFlightStatus",
			"outputs": [],
			"payable": false,
			"stateMutability": "nonpayable",
			"type": "function",
			"signature": "0xdd9548b5"
		},
		{
			"constant": false,
			"inputs": [],
			"name": "registerOracle",
			"outputs": [],
			"payable": true,
			"stateMutability": "payable",
			"type": "function",
			"signature": "0x339d2590"
		},
		{
			"constant": true,
			"inputs": [],
			"name": "getMyIndexes",
			"outputs": [
				{
					"name": "",
					"type": "uint8[3]"
				}
			],
			"payable": false,
			"stateMutability": "view",
			"type": "function",
			"signature": "0x5f1cc0e6"
		},
		{
			"constant": false,
			"inputs": [
				{
					"name": "index",
					"type": "uint8"
				},
				{
					"name": "airline",
					"type": "address"
				},
				{
					"name": "flight",
					"type": "bytes32"
				},
				{
					"name": "timestamp",
					"type": "uint256"
				},
				{
					"name": "statusCode",
					"type": "uint8"
				}
			],
			"name": "submitOracleResponse",
			"outputs": [],
			"payable": false,
			"stateMutability": "nonpayable",
			"type": "function",
			"signature": "0x96417767"
		}
	],
	"bytecode": "0x60806040526001805460a060020a60ff021916905534801561002057600080fd5b506040516020806126078339810180604052602081101561004057600080fd5b505160008054600160a060020a0319163317808255604051600160a060020a039190911691907f5c486528ec3e3f0ea91181cff8116f02bfa350e03b8b6f12e00765adbb5af85c908290a360018054600160a060020a031916600160a060020a039290921691909117905561254d806100ba6000396000f3fe6080604052600436106101395760003560e060020a900480638f32d59b116100af578063dd9548b511610073578063dd9548b5146104a4578063e02f83c7146104e3578063e7580f7b146104f8578063e77d8da614610537578063ee38a74914610573578063f2fde38b1461060057610139565b80638f32d59b14610327578063964177671461035057806398b5151c146103a2578063cd905dff14610472578063d79b71a21461048757610139565b80635f1cc0e6116101015780635f1cc0e61461020557806364b4f75114610252578063691539d414610279578063715018a61461029657806372511d4d146102ab5780638da5cb5b146102f657610139565b806326687a441461013e578063339d259014610148578063360f74dc146101505780633c086c24146101b55780634647a9a3146101ca575b600080fd5b610146610633565b005b61014661087d565b34801561015c57600080fd5b50610165610935565b60408051602080825283518183015283519192839290830191858101910280838360005b838110156101a1578181015183820152602001610189565b505050509050019250505060405180910390f35b3480156101c157600080fd5b50610165610a24565b3480156101d657600080fd5b50610146600480360360408110156101ed57600080fd5b50600160a060020a0381351690602001351515610a88565b34801561021157600080fd5b5061021a610d34565b6040518082606080838360005b8381101561023f578181015183820152602001610227565b5050505090500191505060405180910390f35b34801561025e57600080fd5b50610267610e03565b60408051918252519081900360200190f35b6101466004803603602081101561028f57600080fd5b5035610e0f565b3480156102a257600080fd5b50610146611124565b3480156102b757600080fd5b506102d5600480360360208110156102ce57600080fd5b50356111c5565b60408051938452602084019290925260ff1682820152519081900360600190f35b34801561030257600080fd5b5061030b611282565b60408051600160a060020a039092168252519081900360200190f35b34801561033357600080fd5b5061033c611291565b604080519115158252519081900360200190f35b34801561035c57600080fd5b50610146600480360360a081101561037357600080fd5b5060ff8135811691600160a060020a0360208201351691604082013591606081013591608090910135166112a2565b3480156103ae57600080fd5b506103cc600480360360208110156103c557600080fd5b503561157b565b604051808681526020018060200185815260200184815260200183600160a060020a0316600160a060020a03168152602001828103825286818151815260200191508051906020019080838360005b8381101561043357818101518382015260200161041b565b50505050905090810190601f1680156104605780820380516001836020036101000a031916815260200191505b50965050505050505060405180910390f35b34801561047e57600080fd5b5061033c6116a1565b6101466004803603602081101561049d57600080fd5b50356116a6565b3480156104b057600080fd5b50610146600480360360608110156104c757600080fd5b50600160a060020a0381351690602081013590604001356117ae565b3480156104ef57600080fd5b50610267611905565b34801561050457600080fd5b5061050d611957565b60408051941515855260ff9093166020850152838301919091526060830152519081900360800190f35b34801561054357600080fd5b506101466004803603608081101561055a57600080fd5b5080359060208101359060408101359060600135611a45565b34801561057f57600080fd5b506101466004803603604081101561059657600080fd5b600160a060020a0382351691908101906040810160208201356401000000008111156105c157600080fd5b8201836020820111156105d357600080fd5b803590602001918460018302840111640100000000831117156105f557600080fd5b509092509050611b61565b34801561060c57600080fd5b506101466004803603602081101561062357600080fd5b5035600160a060020a0316611e8e565b600154604080517f5fe924260000000000000000000000000000000000000000000000000000000081529051600092600160a060020a031691635fe92426916004808301926020929190829003018186803b15801561069157600080fd5b505afa1580156106a5573d6000803e3d6000fd5b505050506040513d60208110156106bb57600080fd5b50519050348111156107015760405160e560020a62461bcd0281526004018080602001828103825260328152602001806124726032913960400191505060405180910390fd5b600154604080517f51c561700000000000000000000000000000000000000000000000000000000081523360048201529051600160a060020a03909216916351c561709160248082019260009290919082900301818387803b15801561076657600080fd5b505af115801561077a573d6000803e3d6000fd5b50506040805133815234602082015281517f5c8d63664d2fcb80124cc2336799bcf0be841fa53a6c6054e6e397222425d56f9450908190039091019150a1600154604080517f5fe924260000000000000000000000000000000000000000000000000000000081529051600092600160a060020a031691635fe92426916004808301926020929190829003018186803b15801561081657600080fd5b505afa15801561082a573d6000803e3d6000fd5b505050506040513d602081101561084057600080fd5b50516040519091503482900390339082156108fc029083906000818181858888f19350505050158015610877573d6000803e3d6000fd5b50505050565b670de0b6b3a76400003410156108dd576040805160e560020a62461bcd02815260206004820152601c60248201527f526567697374726174696f6e2066656520697320726571756972656400000000604482015290519081900360640190fd5b6108e561233a565b6108ee33611ee4565b6040805180820182526001808252602080830185815233600090815260029092529390208251815460ff191690151517815592519394509092610877918301906003612358565b600154604080517f76d581210000000000000000000000000000000000000000000000000000000081529051606092600160a060020a0316916376d58121916004808301926000929190829003018186803b15801561099357600080fd5b505afa1580156109a7573d6000803e3d6000fd5b505050506040513d6000823e601f3d908101601f1916820160405260208110156109d057600080fd5b8101908080516401000000008111156109e857600080fd5b820160208101848111156109fb57600080fd5b8151856020820283011164010000000082111715610a1857600080fd5b50909450505050505b90565b600154604080517fad403ba80000000000000000000000000000000000000000000000000000000081523360048201529051606092600160a060020a03169163ad403ba8916024808301926000929190829003018186803b15801561099357600080fd5b600154604080517f2b01a725000000000000000000000000000000000000000000000000000000008152600160a060020a03858116600483015291516060936000938493911691632b01a725916024808201928692909190829003018186803b158015610af457600080fd5b505afa158015610b08573d6000803e3d6000fd5b505050506040513d6000823e601f3d908101601f191682016040526060811015610b3157600080fd5b810190808051640100000000811115610b4957600080fd5b82016020810184811115610b5c57600080fd5b8151640100000000811182820187101715610b7657600080fd5b505060208201516040909201519096509094509250505060ff821615610bd05760405160e560020a62461bcd0281526004018080602001828103825260288152602001806124a46028913960400191505060405180910390fd5b8315610c7257600154604080517f47f614fb000000000000000000000000000000000000000000000000000000008152336004820152600160a060020a038881166024830152915191909216916347f614fb91604480830192600092919082900301818387803b158015610c4357600080fd5b505af1158015610c57573d6000803e3d6000fd5b50505050610c6f600182611f8a90919063ffffffff16565b90505b7f2e335ae65869eda5ae40677cbe2067ce4cebe5afea61b76cc260970402d721293384836040518084600160a060020a0316600160a060020a0316815260200180602001838152602001828103825284818151815260200191508051906020019080838360005b83811015610cf1578181015183820152602001610cd9565b50505050905090810190601f168015610d1e5780820380516001836020036101000a031916815260200191505b5094505050505060405180910390a15050505050565b610d3c61233a565b3360009081526002602052604090205460ff16610da3576040805160e560020a62461bcd02815260206004820152601b60248201527f4e6f74207265676973746572656420617320616e206f7261636c650000000000604482015290519081900360640190fd5b3360009081526002602052604080822081516060810192839052926001909101916003918390855b825461010083900a900460ff16815260206001928301818104948501949093039092029101808411610dcb5790505050505050905090565b670de0b6b3a764000081565b600154604080517f912dbcfc00000000000000000000000000000000000000000000000000000000815233600482015260248101849052905160009283928392600160a060020a039092169163912dbcfc91604480820192606092909190829003018186803b158015610e8157600080fd5b505afa158015610e95573d6000803e3d6000fd5b505050506040513d6060811015610eab57600080fd5b50805160208201516040909201519094509092509050610ee3600a610ed784600f63ffffffff611fa316565b9063ffffffff611fca16565b30311015610f255760405160e560020a62461bcd0281526004018080602001828103825260338152602001806124cc6033913960400191505060405180910390fd5b600154604080517f345fd17c000000000000000000000000000000000000000000000000000000008152336004820152602481018790529051600092600160a060020a03169163345fd17c91604480830192602092919082900301818787803b158015610f9157600080fd5b505af1158015610fa5573d6000803e3d6000fd5b505050506040513d6020811015610fbb57600080fd5b50519050801561100957336108fc610fdf600a610ed787600f63ffffffff611fa316565b6040518115909202916000818181858888f19350505050158015611007573d6000803e3d6000fd5b505b600154604080517f912dbcfc000000000000000000000000000000000000000000000000000000008152336004820152602481018890529051600160a060020a039092169163912dbcfc91604480820192606092909190829003018186803b15801561107457600080fd5b505afa158015611088573d6000803e3d6000fd5b505050506040513d606081101561109e57600080fd5b508051602082015160409092015190955090935091507fb4e070083fb8566e5085b63c065ea8903bdf9632c56fd6a16d2c369eb1a947f633856110ed600a610ed788600f63ffffffff611fa316565b60408051600160a060020a03909416845260208401929092528282015260ff85166060830152519081900360800190a15050505050565b61112c611291565b61116e576040805160e560020a62461bcd028152602060048201526017602482015260008051602061240a833981519152604482015290519081900360640190fd5b60008054604051600160a060020a03909116907f5c486528ec3e3f0ea91181cff8116f02bfa350e03b8b6f12e00765adbb5af85c908390a36000805473ffffffffffffffffffffffffffffffffffffffff19169055565b60008080600154604080517f912dbcfc00000000000000000000000000000000000000000000000000000000815233600482015260248101879052905160009283928392600160a060020a039092169163912dbcfc91604480820192606092909190829003018186803b15801561123b57600080fd5b505afa15801561124f573d6000803e3d6000fd5b505050506040513d606081101561126557600080fd5b508051602082015160409092015190999198509650945050505050565b600054600160a060020a031690565b600054600160a060020a0316331490565b3360009081526002602052604090206001015460ff868116911614806112e457503360009081526002602052604090206001015460ff86811661010090920416145b8061130c57503360009081526002602052604090206001015460ff8681166201000090920416145b61134a5760405160e560020a62461bcd0281526004018080602001828103825260238152602001806124ff6023913960400191505060405180910390fd5b6040805160ff8781167f010000000000000000000000000000000000000000000000000000000000000002602080840191909152600160a060020a0388166c0100000000000000000000000002602184015260358301879052605580840187905284518085039091018152607590930184528251928101929092206000818152600390935292909120547401000000000000000000000000000000000000000090041661142b5760405160e560020a62461bcd02815260040180806020018281038252604881526020018061242a6048913960600191505060405180910390fd5b600081815260036020908152604080832060ff8616808552600191820184528285208054928301815585529383902001805473ffffffffffffffffffffffffffffffffffffffff1916331790558051600160a060020a0389168152918201879052818101869052606082019290925290517f06354a194cc1aa38c93009e264262f1db6b56a5e6dc2be2c7596a94b980c2f859181900360800190a1600081815260036020818152604080842060ff8716855260010190915290912054106115735760408051600160a060020a03871681526020810186905280820185905260ff8416606082015290517f2c01e4c91c66eba4e28833dfd0d7db5b12558c3773d8fe5ab88cbaafb423056e9181900360800190a16115488483611fec565b6000818152600360205260409020805474ff0000000000000000000000000000000000000000191690555b505050505050565b60006060818080600060606000806000600160009054906101000a9004600160a060020a0316600160a060020a0316634fa3f2128c6040518263ffffffff1660e060020a0281526004018082815260200191505060006040518083038186803b1580156115e757600080fd5b505afa1580156115fb573d6000803e3d6000fd5b505050506040513d6000823e601f3d908101601f1916820160405260a081101561162457600080fd5b81516020830180519193928301929164010000000081111561164557600080fd5b8201602081018481111561165857600080fd5b815164010000000081118282018710171561167257600080fd5b505060208201516040830151606090930151959f50909d509b5099509197505050505050505091939590929450565b600190565b600154604080517f6958f6a900000000000000000000000000000000000000000000000000000000815233600482015234602482015260448101849052905160009283928392600160a060020a0390921691636958f6a99160648082019260609290919082900301818787803b15801561171f57600080fd5b505af1158015611733573d6000803e3d6000fd5b505050506040513d606081101561174957600080fd5b5080516020808301516040938401518451600160a060020a038516815292830182905260ff811683860152935192965094509192507fbc610a15be7a569b2502776fe8fbcb93efaae18f429b6fc3dd252c2cddeefc6d9181900360600190a150505050565b60006117b9336121a3565b604080517f010000000000000000000000000000000000000000000000000000000000000060ff84169081026020808401919091526c01000000000000000000000000600160a060020a03808b169182026021860152603585018a905260558086018a9052865180870390910181526075860180885281519185019190912060b587018852338252600160959097019687526000818152600386528890209151825497511515740100000000000000000000000000000000000000000274ff0000000000000000000000000000000000000000199190941673ffffffffffffffffffffffffffffffffffffffff199098169790971796909616919091179055845192835290820152808301879052606081018690529151929350917f8b9eb22876717bbfb6bc02e9c693f640e54e5eb49e166ece6d6a70a6cc84a34f9181900360800190a15050505050565b600061190f611291565b611951576040805160e560020a62461bcd028152602060048201526017602482015260008051602061240a833981519152604482015290519081900360640190fd5b50303190565b600080600080611965611291565b6119a7576040805160e560020a62461bcd028152602060048201526017602482015260008051602061240a833981519152604482015290519081900360640190fd5b600160009054906101000a9004600160a060020a0316600160a060020a031663e7580f7b6040518163ffffffff1660e060020a028152600401608060405180830381600087803b1580156119fa57600080fd5b505af1158015611a0e573d6000803e3d6000fd5b505050506040513d6080811015611a2457600080fd5b50805160208201516040830151606090930151919790965091945092509050565b600154604080517fba805d4700000000000000000000000000000000000000000000000000000000815260048101879052602481018690523360448201526064810185905260848101849052905160009283928392600160a060020a039092169163ba805d479160a48082019260609290919082900301818787803b158015611acd57600080fd5b505af1158015611ae1573d6000803e3d6000fd5b505050506040513d6060811015611af757600080fd5b5080516020808301516040938401518451848152600160a060020a0383169381019390935260ff811683860152935192965094509192507f414f963dad0c693d4fa936d56b7dfd7d2c2506e82a64efda601b3fb8d8ccaf209181900360600190a150505050505050565b600080600160009054906101000a9004600160a060020a0316600160a060020a031663e4bfff6e6040518163ffffffff1660e060020a02815260040160206040518083038186803b158015611bb557600080fd5b505afa158015611bc9573d6000803e3d6000fd5b505050506040513d6020811015611bdf57600080fd5b5051600154604080517fc23bcf09000000000000000000000000000000000000000000000000000000008152905160ff90931692600160a060020a039092169163c23bcf0991600480820192602092909190829003018186803b158015611c4557600080fd5b505afa158015611c59573d6000803e3d6000fd5b505050506040513d6020811015611c6f57600080fd5b50511015611d61576001546040517f9ffd0c340000000000000000000000000000000000000000000000000000000081523360048201818152600160a060020a038981166024850152600060648501819052608060448601908152608486018a90529190951694639ffd0c34948b938b938b939260a401858580828437600081840152601f19601f82011690508083019250505096505050505050506040805180830381600087803b158015611d2457600080fd5b505af1158015611d38573d6000803e3d6000fd5b505050506040513d6040811015611d4e57600080fd5b5080516020909101519092509050611e49565b600180546040517f9ffd0c340000000000000000000000000000000000000000000000000000000081523360048201818152600160a060020a038a8116602485015260648401869052608060448501908152608485018a9052941694639ffd0c349492938b938b938b939290919060a401858580828437600081840152601f19601f82011690508083019250505096505050505050506040805180830381600087803b158015611e1057600080fd5b505af1158015611e24573d6000803e3d6000fd5b505050506040513d6040811015611e3a57600080fd5b50805160209091015190925090505b6040805160ff841681526020810183905281517f57e6365ca0d5671f421a334f2d64fd3396faf131dbabf85533feea8c9d46c164929181900390910190a15050505050565b611e96611291565b611ed8576040805160e560020a62461bcd028152602060048201526017602482015260008051602061240a833981519152604482015290519081900360640190fd5b611ee181612274565b50565b611eec61233a565b611ef461233a565b611efd836121a3565b60ff1680825260208201525b8051602082015160ff90811691161415611f3357611f26836121a3565b60ff166020820152611f09565b602081015160ff1660408201525b8051604082015160ff90811691161480611f6957506020810151604082015160ff9081169116145b15611f8457611f77836121a3565b60ff166040820152611f41565b92915050565b600082820183811015611f9c57600080fd5b9392505050565b600082611fb257506000611f84565b82820282848281611fbf57fe5b0414611f9c57600080fd5b6000808211611fd857600080fd5b6000828481611fe357fe5b04949350505050565b600154604080517f53e0b36f0000000000000000000000000000000000000000000000000000000081529051606092600160a060020a0316916353e0b36f916004808301926000929190829003018186803b15801561204a57600080fd5b505afa15801561205e573d6000803e3d6000fd5b505050506040513d6000823e601f3d908101601f19168201604052602081101561208757600080fd5b81019080805164010000000081111561209f57600080fd5b820160208101848111156120b257600080fd5b81518560208202830111640100000000821117156120cf57600080fd5b50909450600093505050505b8151811015610877576001548251600160a060020a0390911690633ea1097d9084908490811061210757fe5b602002602001015186866040518463ffffffff1660e060020a0281526004018084600160a060020a0316600160a060020a031681526020018381526020018260ff1660ff1681526020019350505050600060405180830381600087803b15801561217057600080fd5b505af1158015612184573d6000803e3d6000fd5b5050505061219c600182611f8a90919063ffffffff16565b90506120db565b6001805474ff000000000000000000000000000000000000000019811660ff7401000000000000000000000000000000000000000092839004811680850182168402929092179384905560408051439390930340602080850191909152600160a060020a0387166c0100000000000000000000000002848301528151808503603401815260549094019091528251920191909120600093600a93918490069260fa92909104161115611f9c576001805474ff0000000000000000000000000000000000000000191690559392505050565b600160a060020a0381166122d2576040805160e560020a62461bcd02815260206004820152601060248201527f4e65772061646472657373206e756c6c00000000000000000000000000000000604482015290519081900360640190fd5b60008054604051600160a060020a03808516939216917f5c486528ec3e3f0ea91181cff8116f02bfa350e03b8b6f12e00765adbb5af85c91a36000805473ffffffffffffffffffffffffffffffffffffffff1916600160a060020a0392909216919091179055565b60405180606001604052806003906020820280388339509192915050565b6001830191839082156123db5791602002820160005b838211156123ac57835183826101000a81548160ff021916908360ff160217905550926020019260010160208160000104928301926001030261236e565b80156123d95782816101000a81549060ff02191690556001016020816000010492830192600103026123ac565b505b506123e79291506123eb565b5090565b610a2191905b808211156123e757805460ff191681556001016123f156fe43616c6c6572206973206e6f7420746865206f776e6572000000000000000000466c69676874206f722074696d657374616d7020646f206e6f74206d61746368206f7261636c652072657175657374204f52207265706f6e736520696e2070726f63657373696e675061696420616d6f756e74206e6f742073756666696369656e7420746f20726567697374657220746865206169726c696e654169726c696e65206e6f7420696e2070726f6365737320746f206265207265736769737465726564436f6e74726163742066756e6473206e6f7420656e6f75676820746f2077697468647261772074686520696e737572616e6365496e64657820646f6573206e6f74206d61746368206f7261636c652072657175657374a165627a7a72305820edc70eef3cee67726d1841010cd89f6fb9a08e52eb55e15e2d883594d1488ebb0029",
	"source": "pragma solidity ^0.5.0;\n\n// It's important to avoid vulnerabilities due to numeric overflow bugs\n// OpenZeppelin's SafeMath library, when used correctly, protects agains such bugs\n// More info: https://www.nccgroup.trust/us/about-us/newsroom-and-events/blog/2018/november/smart-contract-insecurity-bad-arithmetic/\n\nimport \"../core/Ownable.sol\";\nimport \"../../node_modules/openzeppelin-solidity/contracts/math/SafeMath.sol\";\n\n/************************************************** */\n/* FlightSurety Smart Contract                      */\n/************************************************** */\ncontract FlightSuretyApp is Ownable {\n    using SafeMath for uint256; // Allow SafeMath functions to be called for all uint256 types (similar to \"prototype\" in Javascript)\n    using SafeMath for uint8; // Allow SafeMath functions to be called for all uint256 types (similar to \"prototype\" in Javascript)\n\n    /********************************************************************************************/\n    /*                                       DATA VARIABLES                                     */\n    /********************************************************************************************/\n\n    // Flight status codees\n    uint8 private constant STATUS_CODE_UNKNOWN = 0;\n    uint8 private constant STATUS_CODE_ON_TIME = 10;\n    uint8 private constant STATUS_CODE_LATE_AIRLINE = 20;\n    uint8 private constant STATUS_CODE_LATE_WEATHER = 30;\n    uint8 private constant STATUS_CODE_LATE_TECHNICAL = 40;\n    uint8 private constant STATUS_CODE_LATE_OTHER = 50;\n\n    // FlightSuretyData contract\n    FlightSuretyData flightSuretyData;\n\n    //address private contractOwner;          // Account used to deploy contract\n\n    /*struct Flight {\n        bool isRegistered;\n        bytes32 code;\n        uint8 statusCode;\n        uint256 updatedTimestamp;        \n        address airline;\n        bytes32 departure;\n        bytes32 arrival;\n    }*/\n    //mapping(bytes32 => Flight) private flights;\n\n    /********************************************************************************************/\n    /*                                       EVENT DEFINITIONS                                  */\n    /********************************************************************************************/\n\n    event AirlineSubmittedFund (address airlineAdress, uint256 fund);\n    event AirlineRegistration (uint8 state, uint256 airlinesRegistered);\n    event MultipartyConsensusAirlineRegisterVote (address airlineEmitionVoteAddress, string airlineVotedName, uint256 airlineVotes);\n    event FlightRegistered(bytes32 flightCode, address airline, uint8 status);\n    event BoughtInsurance(address passenger, bytes32 flightCode, uint8 status);\n    event PassengerWithdrawStatus(address passenger,bytes32 code, uint256 amount, uint8 status);\n    /********************************************************************************************/\n    /*                                       FUNCTION MODIFIERS                                 */\n    /********************************************************************************************/\n\n    // Modifiers help avoid duplication of code. They are typically used to validate something\n    // before a function is allowed to be executed.\n\n    /**\n    * @dev Modifier that requires the \"operational\" boolean variable to be \"true\"\n    *      This is used on all state changing functions to pause the contract in \n    *      the event there is an issue that needs to be fixed\n    */\n    modifier requireIsOperational() \n    {\n         // Modify to call data contract's status\n        require(true, \"Contract is currently not operational\");  \n        _;  // All modifiers require an \"_\" which indicates where the function body will be added\n    }\n\n    /**\n    * @dev Modifier that requires enough fund to an airline to start operation in contract\n    */\n    modifier airlinePaidEnoughFundToOperate()\n    {\n        uint256 _minFound = flightSuretyData.getMinSubmitionFund();\n        require(msg.value >= _minFound, \"Paid amount not sufficient to register the airline\"); \n        _;\n    }\n\n    /**\n    * @dev Modifier that requires enough fund to an airline to start operation in contract\n    */\n    modifier checkAirlineFundValue() {\n        _;\n        uint256 _minFound = flightSuretyData.getMinSubmitionFund();\n        uint amountToReturn = msg.value - _minFound;\n        msg.sender.transfer(amountToReturn);\n    }\n\n    /**\n    * @dev Modifier that requires enough fund to an airline to start operation in contract\n    */\n    modifier requireEnoughFundsInContract(address passenger, bytes32 flightCode)\n    {\n        (bytes32 code, uint256 amount, uint8 status) = flightSuretyData.fetchInsuranceInfoByPassengerAndCode(msg.sender, flightCode);\n        require(address(this).balance >= amount.mul(15).div(10), \"Contract funds not enough to withdraw the insurance\"); \n        _;\n    }\n\n    /********************************************************************************************/\n    /*                                       CONSTRUCTOR                                        */\n    /********************************************************************************************/\n\n    /**\n    * @dev Contract constructor\n    *\n    */\n    constructor\n                                (\n                                    address flightSuretyDataContract\n                                ) \n                                public \n    {\n        flightSuretyData = FlightSuretyData(flightSuretyDataContract);\n    }\n\n    /********************************************************************************************/\n    /*                                       UTILITY FUNCTIONS                                  */\n    /********************************************************************************************/\n\n    function isOperational() \n        public \n        pure \n        returns(bool) \n    {\n        return true;  // Modify to call data contract's status\n    }\n\n    function getBalanceAppContract ()\n        onlyOwner()\n        external view\n        returns(uint256)\n    {\n        return address(this).balance;\n    }\n\n    function fetchDataContractConfiguration()\n        onlyOwner()\n        requireIsOperational()\n        external\n        returns(bool operational, uint8 minAirlinesNumberMutipartyConsensus, uint256 minSubmitionFund, uint256 registeredAirlines) {\n            (operational, minAirlinesNumberMutipartyConsensus, minSubmitionFund, registeredAirlines) = flightSuretyData.fetchDataContractConfiguration();\n            return (\n                operational,\n                minAirlinesNumberMutipartyConsensus,\n                minSubmitionFund,\n                registeredAirlines\n            );\n    }\n\n    /********************************************************************************************/\n    /*                                     SMART CONTRACT FUNCTIONS                             */\n    /********************************************************************************************/\n\n  \n   /**\n    * @dev Add an airline to the registration queue\n    *\n    */   \n    function registerAirline\n    (\n        address airlineAddressToRegister,\n        string calldata airlineName\n    )\n        external\n        requireIsOperational()\n    {\n        uint8 state;\n        uint256 airlinesRegistered;\n        if (flightSuretyData.getRegisteredAirlines() < flightSuretyData.getMinAirlinesNumberMutipartyConsensus()) {\n            (state, airlinesRegistered) = flightSuretyData.registerAirline(msg.sender, airlineAddressToRegister, airlineName, false);\n        } else {\n            (state, airlinesRegistered) = flightSuretyData.registerAirline(msg.sender, airlineAddressToRegister, airlineName, true);\n        }\n        emit AirlineRegistration(state, airlinesRegistered);\n    }\n\n    /**\n    * @dev Add an airline to the registration queue\n    *\n    */   \n    function submitFundAirline()\n        requireIsOperational()\n        airlinePaidEnoughFundToOperate()\n        checkAirlineFundValue()\n        external payable\n    {\n        flightSuretyData.updateFundFieldAirline(msg.sender);\n        emit AirlineSubmittedFund(msg.sender, msg.value);\n    }\n\n    /**\n    * @dev Vote to register a new airline for multiparty consensus\n    *\n    */   \n    function multipartyConsensusVote\n    (\n        address airlineAddressToBeRegister, \n        bool vote\n    )\n        external\n        requireIsOperational()\n    {\n        // Fetch airline data by address\n        (string memory _airlineName, uint8 _airlineState, uint256 _airlineVotes) = flightSuretyData.fetchAirlineByAddress(airlineAddressToBeRegister);\n        // Check that the airline is in registration process state\n        require(_airlineState == 0, \"Airline not in process to be resgistered\");\n        if (vote) {\n            flightSuretyData.voteToRegisterAirline(msg.sender, airlineAddressToBeRegister);\n            _airlineVotes = _airlineVotes.add(1);\n        }\n        // Emit the proper event\n        emit MultipartyConsensusAirlineRegisterVote (msg.sender, _airlineName, _airlineVotes);\n    }\n\n\n   /**\n    * @dev Register a future flight for insuring.\n    *\n    */  \n    function registerFlight\n    (\n        bytes32 code,\n        uint256 updatedTimestamp,\n        bytes32 departure,\n        bytes32 arrival\n    )\n        external\n        requireIsOperational()\n    {\n        (bytes32 flightCode, address airline, uint8 status) = flightSuretyData.registerFlight(code, updatedTimestamp, msg.sender, departure, arrival);\n        emit FlightRegistered(flightCode, airline, status);\n    }\n\n    /**\n    * @dev Fetch flights codes.\n    *\n    */  \n    function fetchFlightsCodes()\n        external\n        view\n        requireIsOperational()\n        returns(bytes32[] memory)\n    {\n        return flightSuretyData.fetchRegisteredFlightsCodes();\n    }\n\n    /**\n    * @dev Fetch flight info by code.\n    *\n    */  \n    function fetchFlightInfoByCode\n    (\n        bytes32 flightCode\n    )\n        external\n        view\n        requireIsOperational()\n        returns(bytes32, string memory, bytes32, bytes32, address)\n    {\n        (bytes32 code, string memory airlineName, bytes32 departure, bytes32 arrival, address airline) = flightSuretyData.fetchRegisteredFlightInfoByCode(flightCode);\n        return (\n            code,\n            airlineName,\n            departure,\n            arrival,\n            airline\n        );\n    }\n\n    /**\n    * @dev Register a future flight for insuring.\n    *\n    */\n    function buyInsurance\n    (\n        bytes32 flightCode\n    )\n        external\n        payable\n        requireIsOperational()\n    {\n        (address returnPassenger, bytes32 returnFlightCode, uint8 returnState) = flightSuretyData.buyInsurance(msg.sender, msg.value, flightCode);\n        emit BoughtInsurance(returnPassenger, returnFlightCode, returnState);\n    }\n\n    /**\n    * @dev Fetch insurances codes for a passenger.\n    *\n    */  \n    function fetchActiveInsurancesKeysForPassenger()\n        external\n        view\n        requireIsOperational()\n        returns(bytes32[] memory)\n    {\n        return flightSuretyData.fetchActiveInsurancesKeysByPassenger(msg.sender);\n    }\n\n    /**\n    * @dev Fetch insurances info for a passenger and code.\n    *\n    */  \n    function fetchInsurancesInfoForPassengerAndCode\n    (\n        bytes32 flightCode\n    )\n        external\n        view\n        requireIsOperational()\n        returns(bytes32, uint256, uint8)\n    {\n        (bytes32 code, uint256 amount, uint8 status) = flightSuretyData.fetchInsuranceInfoByPassengerAndCode(msg.sender, flightCode);\n        return (\n            code,\n            amount,\n            status\n        );\n    }\n    \n   /**\n    * @dev Called after oracle has updated flight status\n    *\n    */  \n    function processFlightStatus\n    (\n        bytes32 flight,\n        uint8 statusCode\n    )\n        internal\n        requireIsOperational()\n    {\n        // Fetch passengers array\n        address[] memory passengersList = flightSuretyData.fetchRegisteredPassengers();\n        for (uint256 paxIndex = 0; paxIndex < passengersList.length; paxIndex = paxIndex.add(1)) {\n            flightSuretyData.creditInsurees (passengersList[paxIndex], flight, statusCode);\n        }\n    }\n\n    /**\n    * @dev Passenger can withdraw any funds owed to them as a result of receiving credit for insurance payout\n    *\n    */  \n    function passengerWithdraw\n    (\n        bytes32 flightCode\n    )\n        public\n        payable\n        requireIsOperational()\n    {\n        bytes32 code;\n        uint256 amount;\n        uint8 status;\n        // Fetch amount paid for the insurance to calculate the withdraw payment amount\n        (code, amount, status) = flightSuretyData.fetchInsuranceInfoByPassengerAndCode(msg.sender, flightCode);\n        // Check if contract balance has enough ethers\n        require(address(this).balance >= amount.mul(15).div(10), \"Contract funds not enough to withdraw the insurance\");\n        // Update the insurance status before to transfer withdraw to passenger\n        bool returnUpdateStatus = flightSuretyData.paymentWithdraw(msg.sender, flightCode);\n        if(returnUpdateStatus) {\n            msg.sender.transfer(amount.mul(15).div(10));\n        }\n        // Fetch current status for insurance after withdraw\n        (code, amount, status) = flightSuretyData.fetchInsuranceInfoByPassengerAndCode(msg.sender, flightCode);\n        // Emit proper event\n        emit PassengerWithdrawStatus(msg.sender, code, amount.mul(15).div(10), status);\n    }\n\n\n    // Generate a request for oracles to fetch flight information\n    function fetchFlightStatus\n    (\n        address airline,\n        bytes32 flight,\n        uint256 timestamp                            \n    )\n        external\n    {\n        uint8 index = getRandomIndex(msg.sender);\n\n        // Generate a unique key for storing the request\n        bytes32 key = keccak256(abi.encodePacked(index, airline, flight, timestamp));\n        oracleResponses[key] = ResponseInfo({\n                                                requester: msg.sender,\n                                                isOpen: true\n                                            });\n\n        emit OracleRequest(index, airline, flight, timestamp);\n    } \n\n\n// region ORACLE MANAGEMENT\n\n    // Incremented to add pseudo-randomness at various points\n    uint8 private nonce = 0;    \n\n    // Fee to be paid when registering oracle\n    uint256 public constant REGISTRATION_FEE = 1 ether;\n\n    // Number of oracles that must respond for valid status\n    uint256 private constant MIN_RESPONSES = 3;\n\n\n    struct Oracle {\n        bool isRegistered;\n        uint8[3] indexes;        \n    }\n\n    // Track all registered oracles\n    mapping(address => Oracle) private oracles;\n\n    // Model for responses from oracles\n    struct ResponseInfo {\n        address requester;                              // Account that requested status\n        bool isOpen;                                    // If open, oracle responses are accepted\n        mapping(uint8 => address[]) responses;          // Mapping key is the status code reported\n                                                        // This lets us group responses and identify\n                                                        // the response that majority of the oracles\n    }\n\n    // Track all oracle responses\n    // Key = hash(index, flight, timestamp)\n    mapping(bytes32 => ResponseInfo) private oracleResponses;\n\n    // Event fired each time an oracle submits a response\n    event FlightStatusInfo(address airline, bytes32 flight, uint256 timestamp, uint8 status);\n\n    event OracleReport(address airline, bytes32 flight, uint256 timestamp, uint8 status);\n\n    // Event fired when flight status request is submitted\n    // Oracles track this and if they have a matching index\n    // they fetch data and submit a response\n    event OracleRequest(uint8 index, address airline, bytes32 flight, uint256 timestamp);\n\n\n    // Register an oracle with the contract\n    function registerOracle\n                            (\n                            )\n                            external\n                            payable\n    {\n        // Require registration fee\n        require(msg.value >= REGISTRATION_FEE, \"Registration fee is required\");\n\n        uint8[3] memory indexes = generateIndexes(msg.sender);\n\n        oracles[msg.sender] = Oracle({\n                                        isRegistered: true,\n                                        indexes: indexes\n                                    });\n    }\n\n    function getMyIndexes\n                            (\n                            )\n                            view\n                            external\n                            returns(uint8[3] memory)\n    {\n        require(oracles[msg.sender].isRegistered, \"Not registered as an oracle\");\n\n        return oracles[msg.sender].indexes;\n    }\n\n\n\n\n    // Called by oracle when a response is available to an outstanding request\n    // For the response to be accepted, there must be a pending request that is open\n    // and matches one of the three Indexes randomly assigned to the oracle at the\n    // time of registration (i.e. uninvited oracles are not welcome)\n    function submitOracleResponse\n                        (\n                            uint8 index,\n                            address airline,\n                            bytes32 flight,\n                            uint256 timestamp,\n                            uint8 statusCode\n                        )\n                        external\n    {\n        require((oracles[msg.sender].indexes[0] == index) || (oracles[msg.sender].indexes[1] == index) || (oracles[msg.sender].indexes[2] == index), \"Index does not match oracle request\");\n\n\n        bytes32 key = keccak256(abi.encodePacked(index, airline, flight, timestamp)); \n        require(oracleResponses[key].isOpen, \"Flight or timestamp do not match oracle request OR reponse in processing\");\n\n        oracleResponses[key].responses[statusCode].push(msg.sender);\n\n        // Information isn't considered verified until at least MIN_RESPONSES\n        // oracles respond with the *** same *** information\n        emit OracleReport(airline, flight, timestamp, statusCode);\n        if (oracleResponses[key].responses[statusCode].length >= MIN_RESPONSES) {\n\n            emit FlightStatusInfo(airline, flight, timestamp, statusCode);\n\n            // Handle flight status as appropriate\n            processFlightStatus(flight, statusCode);\n\n            // Close the response in order to handel only once\n            oracleResponses[key].isOpen = false;\n        }\n    }\n\n\n    function getFlightKey\n                        (\n                            address airline,\n                            string memory flight,\n                            uint256 timestamp\n                        )\n                        pure\n                        internal\n                        returns(bytes32) \n    {\n        return keccak256(abi.encodePacked(airline, flight, timestamp));\n    }\n\n    // Returns array of three non-duplicating integers from 0-9\n    function generateIndexes\n                            (                       \n                                address account         \n                            )\n                            internal\n                            returns(uint8[3] memory)\n    {\n        uint8[3] memory indexes;\n        indexes[0] = getRandomIndex(account);\n        \n        indexes[1] = indexes[0];\n        while(indexes[1] == indexes[0]) {\n            indexes[1] = getRandomIndex(account);\n        }\n\n        indexes[2] = indexes[1];\n        while((indexes[2] == indexes[0]) || (indexes[2] == indexes[1])) {\n            indexes[2] = getRandomIndex(account);\n        }\n\n        return indexes;\n    }\n\n    // Returns array of three non-duplicating integers from 0-9\n    function getRandomIndex\n                            (\n                                address account\n                            )\n                            internal\n                            returns (uint8)\n    {\n        uint8 maxValue = 10;\n\n        // Pseudo random number...the incrementing nonce adds variation\n        uint8 random = uint8(uint256(keccak256(abi.encodePacked(blockhash(block.number - nonce++), account))) % maxValue);\n\n        if (nonce > 250) {\n            nonce = 0;  // Can only fetch blockhashes for last 256 blocks so we adapt\n        }\n\n        return random;\n    }\n\n// endregion\n\n}\n\n// ABI FlightSuretyData contract\ncontract FlightSuretyData {\n    function registerAirline (address, address, string calldata, bool) external returns (uint8, uint256);\n    function fetchDataContractConfiguration () external returns (bool, uint8, uint256, uint256);\n    function isOperational () public view returns(bool);\n    function getMinAirlinesNumberMutipartyConsensus () external view returns (uint8);\n    function getMinSubmitionFund () external view returns (uint256);\n    function getRegisteredAirlines () external view returns (uint256);\n    function updateFundFieldAirline (address) external;\n    function fetchAirlineByAddress (address airlineAddress) external view returns (string memory, uint8, uint256);\n    function voteToRegisterAirline (address airlineAddressOrigin, address airlineAddressToBeVoted) external;\n    function registerFlight (bytes32 code, uint256 updatedTimestamp, address airline, bytes32, bytes32) external returns (bytes32, address, uint8);\n    function buyInsurance (address passenger, uint256 amountPaid, bytes32 flightCode) external payable returns (address, bytes32, uint8);\n    function fetchRegisteredFlightsCodes () external view returns(bytes32[] memory);\n    function fetchRegisteredFlightInfoByCode (bytes32 flightCode) external view returns (bytes32, string memory, bytes32, bytes32, address);\n    function fetchActiveInsurancesKeysByPassenger (address passenger) external view returns(bytes32[] memory);\n    function fetchRegisteredPassengers () external view returns(address[] memory);\n    function fetchInsuranceInfoByPassengerAndCode (address passenger, bytes32 flightCode) external view returns(bytes32, uint256, uint8);\n    function creditInsurees (address passenger, bytes32 flightCodeInsurance, uint8 flightStatus) external;\n    function paymentWithdraw (address passenger, bytes32 flightCodeInsuranceCode) external returns(bool);\n}",
	"sourcePath": "/Users/juansenoret/Documents/trainings/blockchain/Udacity_nanodegree_blockchain/chapters/chapter_8/code/flightsurety-project-code-v2/smart-contracts/contracts/base/FlightSuretyApp.sol",
	"compiler": {
		"name": "solc",
		"version": "0.5.6+commit.b259423e.Emscripten.clang"
	},
	"schemaVersion": "3.0.1",
	"updatedAt": "2019-03-17T14:42:48.379Z",
	"devdoc": {
		"methods": {
			"buyInsurance(bytes32)": {
				"details": "Register a future flight for insuring.    "
			},
			"constructor": {
				"details": "Contract constructor    "
			},
			"fetchActiveInsurancesKeysForPassenger()": {
				"details": "Fetch insurances codes for a passenger.    "
			},
			"fetchFlightInfoByCode(bytes32)": {
				"details": "Fetch flight info by code.    "
			},
			"fetchFlightsCodes()": {
				"details": "Fetch flights codes.    "
			},
			"fetchInsurancesInfoForPassengerAndCode(bytes32)": {
				"details": "Fetch insurances info for a passenger and code.    "
			},
			"multipartyConsensusVote(address,bool)": {
				"details": "Vote to register a new airline for multiparty consensus    "
			},
			"passengerWithdraw(bytes32)": {
				"details": "Passenger can withdraw any funds owed to them as a result of receiving credit for insurance payout    "
			},
			"registerAirline(address,string)": {
				"details": "Add an airline to the registration queue    "
			},
			"registerFlight(bytes32,uint256,bytes32,bytes32)": {
				"details": "Register a future flight for insuring.    "
			},
			"submitFundAirline()": {
				"details": "Add an airline to the registration queue    "
			}
		}
	},
	"userdoc": {
		"methods": {
			"isOperational()": {
				"notice": "*****************************************************************************************"
			}
		},
		"notice": "************************************************ "
	},
	"timeoutBlocks": 0,
	"numberFormat": "BN"
}